{
  "contractName": "Election",
  "abi": [
    {
      "inputs": [],
      "stateMutability": "nonpayable",
      "type": "constructor"
    },
    {
      "anonymous": false,
      "inputs": [
        {
          "indexed": false,
          "internalType": "uint256",
          "name": "id",
          "type": "uint256"
        },
        {
          "indexed": false,
          "internalType": "string",
          "name": "name",
          "type": "string"
        },
        {
          "indexed": false,
          "internalType": "uint256",
          "name": "votecount",
          "type": "uint256"
        }
      ],
      "name": "electionupdated",
      "type": "event"
    },
    {
      "inputs": [
        {
          "internalType": "uint256",
          "name": "",
          "type": "uint256"
        }
      ],
      "name": "candidates",
      "outputs": [
        {
          "internalType": "uint256",
          "name": "id",
          "type": "uint256"
        },
        {
          "internalType": "string",
          "name": "name",
          "type": "string"
        },
        {
          "internalType": "uint256",
          "name": "voteCount",
          "type": "uint256"
        }
      ],
      "stateMutability": "view",
      "type": "function"
    },
    {
      "inputs": [],
      "name": "candidatesCount",
      "outputs": [
        {
          "internalType": "uint256",
          "name": "",
          "type": "uint256"
        }
      ],
      "stateMutability": "view",
      "type": "function"
    },
    {
      "inputs": [
        {
          "internalType": "address",
          "name": "",
          "type": "address"
        }
      ],
      "name": "votedornot",
      "outputs": [
        {
          "internalType": "bool",
          "name": "",
          "type": "bool"
        }
      ],
      "stateMutability": "view",
      "type": "function"
    },
    {
      "inputs": [
        {
          "internalType": "uint256",
          "name": "_id",
          "type": "uint256"
        }
      ],
      "name": "Vote",
      "outputs": [],
      "stateMutability": "nonpayable",
      "type": "function"
    }
  ],
  "bytecode": "0x608060405234801561001057600080fd5b506100556040518060400160405280600a81526020017f43616e646964617465310000000000000000000000000000000000000000000081525061009e60201b60201c565b6100996040518060400160405280600a81526020017f43616e646964617465320000000000000000000000000000000000000000000081525061009e60201b60201c565b6101b6565b6002600081548092919060010191905055506040518060600160405280600254815260200182815260200160008152506000806002548152602001908152602001600020600082015181600001556020820151816001019080519060200190610108929190610119565b506040820151816002015590505050565b828054600181600116156101000203166002900490600052602060002090601f016020900481019282601f1061015a57805160ff1916838001178555610188565b82800160010185558215610188579182015b8281111561018757825182559160200191906001019061016c565b5b5090506101959190610199565b5090565b5b808211156101b257600081600090555060010161019a565b5090565b610587806101c56000396000f3fe608060405234801561001057600080fd5b506004361061004c5760003560e01c80631bc57022146100515780632d35a8a2146100ab5780633477ee2e146100c9578063dcd6a5cd1461017e575b600080fd5b6100936004803603602081101561006757600080fd5b81019080803573ffffffffffffffffffffffffffffffffffffffff1690602001909291905050506101ac565b60405180821515815260200191505060405180910390f35b6100b36101cc565b6040518082815260200191505060405180910390f35b6100f5600480360360208110156100df57600080fd5b81019080803590602001909291905050506101d2565b6040518084815260200180602001838152602001828103825284818151815260200191508051906020019080838360005b83811015610141578082015181840152602081019050610126565b50505050905090810190601f16801561016e5780820380516001836020036101000a031916815260200191505b5094505050505060405180910390f35b6101aa6004803603602081101561019457600080fd5b8101908080359060200190929190505050610294565b005b60016020528060005260406000206000915054906101000a900460ff1681565b60025481565b6000602052806000526040600020600091509050806000015490806001018054600181600116156101000203166002900480601f0160208091040260200160405190810160405280929190818152602001828054600181600116156101000203166002900480156102845780601f1061025957610100808354040283529160200191610284565b820191906000526020600020905b81548152906001019060200180831161026757829003601f168201915b5050505050908060020154905083565b600160003373ffffffffffffffffffffffffffffffffffffffff1673ffffffffffffffffffffffffffffffffffffffff16815260200190815260200160002060009054906101000a900460ff1615610354576040517f08c379a00000000000000000000000000000000000000000000000000000000081526004018080602001828103825260208152602001807f596f75206861766520766f74656420666f72207468652063616e64696461746581525060200191505060405180910390fd5b60008060008381526020019081526020016000206000015414156103e0576040517f08c379a000000000000000000000000000000000000000000000000000000000815260040180806020018281038252601d8152602001807f5468652063616e646964617465206964206973206e6f742076616c696400000081525060200191505060405180910390fd5b6001600080838152602001908152602001600020600201600082825401925050819055506000600160003373ffffffffffffffffffffffffffffffffffffffff1673ffffffffffffffffffffffffffffffffffffffff16815260200190815260200160002060006101000a81548160ff0219169083151502179055507f3c841f91385f410e6f12269c9a0c0eb656e360f1e2d6f91144cfd51a10a2a3188160008084815260200190815260200160002060010160008085815260200190815260200160002060020154604051808481526020018060200183815260200182810382528481815460018160011615610100020316600290048152602001915080546001816001161561010002031660029004801561053e5780601f106105135761010080835404028352916020019161053e565b820191906000526020600020905b81548152906001019060200180831161052157829003601f168201915b505094505050505060405180910390a15056fea264697066735822122060610b90a18cfa71c0a54d38ed92ba54e1ac73cd8366c34ba664c969de74e8a264736f6c63430007000033",
  "immutableReferences": {},
  "source": "pragma solidity ^0.7.0;\r\n\r\ncontract Election{\r\n\tstruct Candidate{\r\n\t\tuint id;\r\n\t\tstring name;\r\n\t\tuint voteCount;\r\n\t}\r\n\r\n\tmapping(uint=>Candidate) public candidates;\r\n\tmapping (address=>bool) public votedornot;\r\n\r\n\tuint public candidatesCount;\r\n\r\n\tevent electionupdated(\r\n\t\tuint id,\r\n\t\tstring name,\r\n\t\tuint votecount);\r\n\r\n\tconstructor() {\r\n\t\taddCandidate('Candidate1');\r\n\t\taddCandidate('Candidate2');\r\n\t}\r\n\r\n\tfunction addCandidate(string memory  _name) private{\r\n\t\tcandidatesCount++;\r\n\t\tcandidates[candidatesCount] = Candidate(candidatesCount, _name, 0);\r\n\t}\r\n\r\n\tfunction Vote(uint _id) public {\r\n\t\trequire(!votedornot[msg.sender], 'You have voted for the candidate');\r\n\r\n\t\trequire(candidates[_id].id!=0,'The candidate id is not valid');\r\n\r\n\t\tcandidates[_id].voteCount+=1;\r\n\r\n\t\tvotedornot[msg.sender]=false;\r\n\t\temit electionupdated(_id,candidates[_id].name,candidates[_id].voteCount);\r\n\t}\r\n\r\n}",
  "sourcePath": "C:/Users/DELL/OneDrive/Desktop/New Folder/contracts/Election.sol",
  "compiler": {
    "name": "solc",
    "version": "0.7.0+commit.9e61f92b.Emscripten.clang"
  },
  "schemaVersion": "3.4.1",
  "updatedAt": "2021-07-08T09:09:28.943Z",
  "devdoc": {
    "kind": "dev",
    "methods": {},
    "version": 1
  },
  "userdoc": {
    "kind": "user",
    "methods": {},
    "version": 1
  }
}